:020000040800F2
:10000000200A0020793800085530000857300008D1
:1000100000000000000000000000000000000000E0
:100020000000000000000000000000005B3000083D
:1000300000000000000000005D3000085F30000894
:100040000F1100083F140008271900086319000861
:10005000671900089F210008072600086130000882
:10006000F3260008F3270008D3290008732E0008A0
:100070005F34000877370008D53800087F30000863
:100080001D310008D738000800000000D9380008EA
:10009000DB380008DD380008DF380008E1380008E8
:1000A000E3380008E5380008E7380008E9380008B8
:1000B0004931000800000000EB3800080000000093
:1000C00070B500260025002400F082FC00F09FFCA3
:1000D0008D480078022148438749864A12880A528F
:1000E00089480078022148438449824A52880A524A
:1000F000854800780221484381497E4A92880A5205
:10010000002012E0C0B2022141437B4A515E7618C2
:10011000C0B202214143794A515E6D18C0B202213A
:100120004143774A515E6418401CC0B21428E9DB91
:100130003000142100F0F8FC7249088028001421D6
:1001400000F0F2FC6F4948802000142100F0ECFC24
:100150006C4988806C480078401C6B4908706A487C
:100160000078142802D1684800210170432000F073
:100170001FFC06007048006800F030FD04000D0010
:10018000B6B2300000F062FD60A20CCA00F06EFD55
:1001900060A20CCA00F06AFD22002B0000F028FECD
:1001A00000F0FAFE64490860452000F001FC0600FA
:1001B0006148406800F012FD04000D00B6B2300046
:1001C00000F044FD51A20CCA00F050FD51A20CCA2F
:1001D00000F04CFD22002B0000F00AFE00F0DCFED7
:1001E00055494860472000F0E3FB0600524880680C
:1001F00000F0F4FC04000D00B6B2300000F026FD63
:1002000042A20CCA00F032FD42A20CCA00F02EFD40
:1002100022002B0000F0ECFD00F0BEFE4649886095
:1002200070BD7CB543480021415E3C4800F0EAFEC9
:1002300002204049095E3A4800F0E4FE04203D49AE
:10024000095E384800F0DEFE2E480021415E364847
:1002500000F0D8FE02202B49095E344800F0D2FE9F
:1002600004202849095E324800F0CCFE04202549CC
:10027000085E00F0D9FE019002202249085E00F0DD
:10028000D3FE00901F480021405E00F0CDFE030029
:100290001C0004202749085E00F0CEFC27A20CCAEF
:1002A00000F0E4FC00F078FE0200230015001C00C2
:1002B00002202049085E00F0BFFC20A20CCA00F01A
:1002C000D5FC00F069FE010023002A000E00150095
:1002D0001C0018480021405E00F0AEFC17A20CCABA
:1002E00000F0C4FC00F058FE23002A00310000F0AA
:1002F00029F873BDE0050020080500203005002026
:1003000058050020C80500201D0600206BA79CE5AD
:1003100068448F3F2D431CEBE2361A3FA837000894
:10032000B8370008C8370008D8370008E837000891
:10033000F8370008E80500208C050020360C7ACA42
:10034000C573313FF3B58BB017001E00BE4801687E
:10035000BD48006800F081FE0990BB480168BB48B9
:10036000006800F07AFE0890B7480168B848006855
:1003700000F073FE0790B5480168B448006800F0CB
:100380006CFE0690B1480168B248006800F065FE56
:100390000290AF480168AE48006800F05EFE05902C
:1003A000AB480168AB48006800F057FE0190A948CF
:1003B0000168A848006800F050FE0490129D139C4C
:1003C0003000290000F049FE210000F046FE002127
:1003D00000F09EFE00D172E23000310000F03DFEE0
:1003E000010000912800290000F037FE009900F07C
:1003F0009FFE010000912000210000F02EFE0099D8
:1004000000F096FE00F024FF00903000009900F00C
:1004100052FF06002800009900F04DFF0500200063
:10042000009900F048FF04000298079900F0B8FE18
:1004300001008020C00500F010FE0390089901988B
:1004400000F076FE01008020C00500F006FE02905C
:100450000998069900F0A4FE059900F0A1FE01009C
:10046000049800F065FE01900198290000F0F5FD68
:1004700000900298210000F0F0FD0100009800F0CB
:100480008FFE00900398210000F0E7FD0400019822
:10049000310000F0E2FD0100200000F081FE0400C8
:1004A0000298310000F0D9FD06000398290000F001
:1004B000D4FD0100300000F073FE05000099EE4805
:1004C00000F0CBFDED49096800F032FEEB49086011
:1004D000E948210000F0C1FDE949096800F028FE63
:1004E000E7490860E448290000F0B7FDEE490968D3
:1004F00000F01EFEEC4908600099F24800F0ADFDE6
:100500000B9900F015FEDD49096800F011FE0B9013
:10051000EC48210000F0A1FD0C9900F009FED8493B
:10052000096800F005FE0C90E648290000F095FDF2
:10053000390000F0FDFDDC49096800F0F9FD070015
:10054000424801688020000641400B9800F085FD7C
:1005500004003F4801680C9800F07FFD0100200076
:1005600000F01EFE04003B480068390000F075FDF5
:100570000100200000F014FED34900F06EFD324966
:10058000096800F0D5FD304908602F4801680B98D4
:1005900000F063FD01000C002D480068390000F0F8
:1005A0005CFD210000F0C4FD04002A4801680C989D
:1005B00000F053FD0100200000F0F2FDC24900F000
:1005C0004CFD2249096800F0B3FD204908601E482F
:1005D00001680C9800F041FD04001C4800683900D7
:1005E00000F03BFD0100200000F0DAFD01000C00EE
:1005F000184801680B9800F030FD210000F098FDCC
:10060000B14900F02AFD1249096800F091FD104936
:1006100008600D480068390000F01FFD01000C0063
:100620000A4801680C9800F018FD210000F080FDD8
:100630000400074801680B9800F00FFD010020003E
:1006400000F0AEFDA04907E08C010020FC05002071
:10065000000600200406002000F0FFFC9C49096809
:1006600000F066FD9A4908609A4801689948006858
:1006700000F0F3FC01000C00974801689648006800
:1006800000F0EBFC210000F053FD01000C008F484E
:1006900001688E48006800F0E0FC210000F048FD91
:1006A00001000C008A4801688948006800F0D5FC08
:1006B000210000F03DFD00F0CBFD00908548006872
:1006C000009900F0F8FD83490860834800680099AC
:1006D00000F0F1FD804908607C480068009900F056
:1006E000EAFD7A4908607A480068009900F0E3FD65
:1006F00077490860774801687648006800F0ADFCEB
:1007000001000C00744801687348006800F0A5FC03
:10071000210000F00DFD04006C4801686B48006882
:1007200000F09BFC0100200000F03AFD0400684846
:1007300001686748006800F090FC0100200000F0AC
:100740002FFD0500644801688020C00500F085FC8D
:100750005E49096800F081FC01000C005D480168F9
:100760008020C00500F079FC5949096800F075FC4B
:10077000210000F0DDFC290000F0F2FD00F02EFA6F
:1007800056A20CCA00F072FA00F006FC57498860C5
:1007900051480168C020000600F05FFC4C49096820
:1007A00000F05BFC01000C004A4801688020C00595
:1007B00000F053FC4549096800F04FFC210000F0AF
:1007C000B7FC00F03DFE00F009FA44A20CCA00F0AC
:1007D0004DFA00F0E1FB454948603F480168C02000
:1007E000000600F03AFC3C49096800F036FC0400C1
:1007F000364801688020C00500F02FFC33490968A5
:1008000000F02BFC0100200000F0CAFCFE2189054D
:1008100000F08EFC05002D4801688020C00500F026
:100820001CFC2B49096800F018FC01000C00294849
:1008300001688020C00500F010FC2749096800F01D
:100840000CFC210000F074FC290000F089FD00F090
:10085000C5F922A20CCA00F009FA00F09DFB234959
:10086000086022488168174800F0F7FB00F0B6F9ED
:1008700002000B001B4805E06F12033C0806002035
:100880000C06002000F0BEFB184841680D4800F03F
:10089000E4FB00F0A3F902000B00134800F0B2FBE8
:1008A00012480168074801E01006002000F0D5FB5F
:1008B00000F094F902000B000D4800F0A3FB0DB00E
:1008C000F0BD00BF000020416F12833A00060020F7
:1008D000040600208C010020FC0500206666666688
:1008E00066A64C40883800080838000898050020A3
:1008F0009438000880B500F022FE6846802101701F
:100900006B4601226B21D02000F0CEFE642000F067
:1009100078FF6846002101706B4601226B21D020D0
:1009200000F0C2FE6846072101706B4601221921C2
:10093000D02000F0B9FE6846062101706B46012206
:100940001A21D02000F0B0FE6846182101706B46D5
:1009500001221B21D02000F0A7FE68460121017072
:100960006B4601221C21D02000F09EFE01BD80B507
:100970006B4602224121D02000F005FE6846007837
:10098000000269464978084300B200F055F9002298
:100990004A4B00F067FF4AA20CCA00F029FA00F0A7
:1009A000FBFA544900F059FB00F0BEFF00B202BD53
:1009B00080B56B4602220100C9B2D02000F0E3FDF1
:1009C00068460178684640780002084380B202BD5C
:1009D00010B5002409E020003B30C0B2FFF7E8FF6B
:1009E00002216143394A5052641C032CF3DB00247A
:1009F0000AE020004330C0B2FFF7DAFF0221614372
:100A0000324A5118C880641C032CF2DB10BD80B53B
:100A10002E4800882C490988401A304908802B4804
:100A2000408829494988401A2C49488027488088AD
:100A300025498988401A294988802448C088244942
:100A40000988401A29490880204800892049498896
:100A5000401A264948801D4840891D498988401A06
:100A6000224988801D480021415E1A4800F0CAFAD8
:100A700002201A49095E184800F0C4FA04201749F8
:100A8000095E174800F0BEFA18480021415E15487B
:100A900000F0B8FA02201549095E134800F0B2FAD6
:100AA00004201249095E124800F0ACFAFFF75FFF1C
:100AB000010009B2104800F0A5FA01BD00407540E0
:100AC000A4703D0AD7434240D8050020B00500205D
:100AD000D00500201838000828380008E00500205C
:100AE000383800084838000858380008E805002061
:100AF000683800080000C842A0380008F446002802
:100B000004D4494200F013F84042604740420029B3
:100B100005D45FD000F00BF840424942604749429B
:100B200000F005F84942604703460B43E6D4002233
:100B3000030A8B420BD203098B4219D243088B4222
:100B40002ED2411A00D20146524110467047FF2270
:100B500009023FD012068B4205D3121209028B42C2
:100B600001D31212090203098B4219D300E0090ACA
:100B7000C3098B4201D3CB01C01A524183098B4276
:100B800001D38B01C01A524143098B4201D34B015F
:100B9000C01A524103098B4201D30B01C01A5241C2
:100BA000C3088B4201D3CB00C01A524183088B4249
:100BB00001D38B00C01A524143088B4201D34B0032
:100BC000C01A5241884200D3401A5241CFD2014646
:100BD0001046704708B500F0C5FE08BD0122120698
:100BE0000118CA420AD28A420DD8382212060909CF
:100BF0008918C20FD20711434007704700D0490837
:100C00000909014301E0C10FC9070020704738B44A
:100C1000012100220368001D002B0BD00468001D79
:100C20000C4202D04D466D1E64192260241D1B1F0C
:100C3000F0D0FAE732BC7047010009D5F4464042D3
:100C400000F006F80122D20711436047010000BFFF
:100C500042221201D21E004207D002D4521E0018B6
:100C6000FCD5C10A4005120589187047F0B50E0081
:100C70005E400125ED072E40B446AE0ADF184C1841
:100C8000F44208D2F7420ED2640D01D07F0D12D18A
:100C900000206146F0BD05D1F74201D87F0D05D196
:100CA0000020C143F0BDFBD1640DF9D00020C14349
:100CB000490549088FE0E419C902DB0229432B43A7
:100CC000DB0A460DC00231438E4630B487B295B27E
:100CD0007D432E0CADB2140C7C43A419260C2404C5
:100CE00025439CB27C43A419190C7943270CC919DC
:100CF000A4B20F043C43090C000C97B247432E0CDE
:100D0000BE193543ADB2170C4743360CBF19A6B216
:100D1000BF193E043543240C3E0C36199FB247439D
:100D2000BF19BCB23E0C89191F0C47437F183E0403
:100D30003443390C704680B297B247432E0CBE192B
:100D40003543ADB2170C4743360CBF19A6B2BF19D5
:100D50003E043543240C3E0C36199FB24743BF195D
:100D6000BCB23E0C89191F0C47437F183E04344324
:100D7000390C77463F0C90B278432E0C801906044C
:100D8000ADB22E43050CA0B22D18120C7A435019A7
:100D9000020C80B2240CA4189AB27A4312191404DB
:100DA0002043120C89181B0C7B43C91830BCEF0A76
:100DB000394203D1B61940414941641E6F12BF0D3B
:100DC000E41B0BDBFF19BC4211DA240500274208A3
:100DD000AE417841614166463143F0BD641C05D1A6
:100DE000401C6141CF0201D34908F4E750E75DE7B9
:100DF000F0B40125ED070F005F404FD48B4200D1C6
:100E0000824205D98446100062468C46190063462A
:100E1000DF184C18640D7F0D3AD0661C760537D06C
:100E2000E61B352E34DCDB022B43DB0A0C0DC9023A
:100E30002943C912202E0DDB1700203E06D01F00CB
:100E4000F741F3405F400026012A7741C018714105
:100E50000DD217E01700F741F2405740F3415A40D6
:100E6000B340F3405A400026801859410AD3A21CCF
:100E700052050FD0C207012F724117004008CB075F
:100E800018434908641C24054208AF417041614180
:100E9000F0BC7047641C21050020F9E76B400AE0B4
:100EA0006B40ABE7F742F3D1E943F1E72442EFD1DE
:100EB00000200021ECE70C00871A9C4105D2C01BE2
:100EC000A141D219634169406B40AE0ADF184C184A
:100ED000F442E7D2640D7F0DE8D0E61B362ED7DC56
:100EE000DB022B43DB0AA4460C0DC9022943C90AC5
:100EF000012E28DC04D1D6075208DF073A435B08ED
:100F0000EF0A76429041994114D039423BD1B6194B
:100F100040414941761C394204D1761C00184941B0
:100F20003942FAD0B9436746B74208D9A41B240511
:100F30002143ADE70042EAD13642E8D1A8E7E40A0E
:100F4000E1070020A4E7202E0BDD203E1F00F34028
:100F5000F7415F40012A002257417E42984191416A
:100F60000BE01700F741F2405740F3415A40B340BD
:100F7000F3405A407E42904199410A0303D2641ED5
:100F8000B619404149410027641E24054208AE417C
:100F900078416141F0BC7047012252054B18DA429A
:100FA00001D9581570475B0D0722D2019B1A10D941
:100FB000FF2B1DD2DB050122D2070A401343090390
:100FC000020D1143490AC200524100D9491CC818F8
:100FD00070470AD1800A0A0302435212921C04D9B4
:100FE000D3070B40D00518437047C80FC0077047A0
:100FF000C80F0002FF30C00570470268531C036031
:10100000117070470EB400B582B003A900916B4611
:1010100002000121034878440A3000F0A5FC02993F
:1010200006B008475F2700009D21020008D5F4465E
:10103000524200F005F80122D20710436047000039
:101040000AD002D4491E9218FCD5C905100A12060E
:10105000524100D3012A4841704730B405004D4049
:101060000122D20715404B180418240E30D01B0E55
:1010700034D0FF2C36D0FF2B3CD0E41800020902FC
:1010800010431143000A090A9446C2B24A43000AB7
:10109000C3B24B43000A4843110A5B18190A1206EF
:1010A0001B0C1A43120A091801D44918641E080AB5
:1010B0007F3C23DBFE2C08DAE40509061143634676
:1010C00099416041284330BC7047FF20C005F9E7D3
:1010D00028001B0EFF2BF6D1D043F4E72800FF2C8D
:1010E000F1D1F9E74002F7D1FF2B01D14902F3D149
:1010F000E005E7E7D8054902E4D0EDE74302002028
:10110000641CDFD15B129B1CDCD9D805DAE7FEE753
:10111000944602000A43921808D0884206D1012260
:1011200012060018D042084600D880426246704736
:101130000122D20703004B402ED4431A01D2C01A19
:10114000C91830B44B180418240E1B0E22D0FF2CE3
:1011500020D0E31A182B1DDC09021143C40D641EB4
:101160000002104394461925ED1A0A00AA40D940FE
:10117000451801D36D08A41CE405D209280A2D06E0
:101180002A436546AA41604103181B0EFF2B01D379
:10119000C00DC00530BC7047514006E05140CCE75F
:1011A0000122D20703004B40F8D4431A03D2C01ADD
:1011B000C9185040514030B44B180902114304186B
:1011C000240E1B0E40D0FF2C3AD025009D410BD39E
:1011D0001ED8C50D4002401A0BD3ED050100400A90
:1011E000C90591416841D5E7C50D40024918401A2B
:1011F000D0D001214008491C0018FCD58C4204D3F2
:101200006D1A000AED054019C4E7E8051040C1E772
:10121000182DBFDCAC1C0D00E140E5414D40012D17
:101220004941C40D00021043451A01D46D1995437C
:10123000641EE405280A2D069541604130BC7047C4
:10124000FF2BA7D1D843A5E72442A3D10020A1E7D3
:101250000122D205011825D2090E22D0FF2920D063
:10126000CB05984310437D31490800D300189318EB
:10127000C01A80009B18801A06D452080ED2C01AD9
:101280009B180018801AF8D5520806D2C0189B1A6D
:101290000018801AF1D55208F8D35B1EC90558080A
:1012A00048417047D042FCD8080EFAD0C04301B57F
:1012B00000F05CFF01BD30B405004D400122D207B3
:1012C00015404B180418240E28D01B0E2FD0FF2CCD
:1012D00034D0FF2B37D0E41A000209021043114327
:1012E00043084808D10D1B1A02D2641EDB181B18D4
:1012F000DB18834200D31B1A4941F9D37F3426DD22
:10130000FE2C08DAE4054808C907194391416041F9
:10131000284330BC7047FF20C005F9E728001B0EAA
:1013200003D0FF2BF5D14902F3D0D043F1E7FF2CD6
:1013300001D14002F9D1FF20C005E9E74002F4D114
:10134000FF2BF8D1F1E728004902E2D0EDE70B02CC
:1013500000202442DCD15B129B1CD9D9D805D7E7E9
:1013600038B502000B004900090EFF290AD00029F8
:1013700001D0002502E0580202D00125ED4306E02D
:10138000002504E0580201D0022500E001255100AB
:10139000090EFF2908D0002901D0002102E05002E7
:1013A00007D00121C94304E0500201D0022100E02E
:1013B0000121012D22DA012920DA002A04D580201A
:1013C00000064240082400E00024002B05D58020C0
:1013D000000643402000062444401800110000F09D
:1013E000CBFE02D2FFF767FF22E0002D04D51000EC
:1013F0001900FFF760FF1EE000201CE0022901D168
:10140000100032BD022D01D1180032BD8D4202D133
:10141000FE20800500E00020002A01D5082400E01D
:101420000024002B02D5220006245440012902D1B9
:10143000210002244C40210000F0B2FE32BDFEE744
:10144000F8B504004100090EFF290DD0002901D193
:1014500040020BD02000002100F08EFE08D2802038
:1014600000064440082504E04002F3D02000F2BD0D
:10147000002520001C4900F07FFE12D2FE27BF0588
:1014800038002100FFF78CFE060020003900FFF72E
:101490004FFE3100FFF7E1FDFFF7DAFE010020000B
:1014A00016E0124900F068FE18D24F1E38002100E5
:1014B000FFF776FE060020003900FFF739FE310005
:1014C000FFF7CBFDFFF7C4FE022169400D002100AC
:1014D000FFF7F1FE290000F063FEF2BD00F0DCFE34
:1014E000212101600248F2BDF404353F0100803F34
:1014F000FFFFFF7F00B583B001218020C00200F014
:1015000079FFC02080000090684602210171684682
:101510000121817168460021C17168460321417132
:101520006946A94800F0D0FF01220821A64801F031
:1015300035F801220921A44801F030F807BD00B5B3
:1015400087B0FFF7D7FF102000F0AEFE012180200A
:10155000800300F06FFF0020039000200690002021
:10156000019005200290D02004900020059097481B
:1015700000906946964801F047F80121944801F02F
:1015800077F807B000BDF8B504000E0015001F0085
:101590009048802149010160802109028C4801F0B6
:1015A00099F8002808D08B480068411E894A1160CC
:1015B0000028F1D1012076E0641C80208001009099
:1015C00000230122E4B2210089B2814801F062F8CF
:1015D000804880214901016002217D4801F07AF8AC
:1015E000002808D17B480068411E7A4A1160002813
:1015F000F2D1012057E03100C9B2754801F064F81A
:1016000074488021490101604021714801F062F86D
:10161000002808D16F480068411E6E4A11600028FA
:10162000F2D101203FE090208001009080239B04B4
:101630002A00D2B2E4B2210089B2654801F02AF84A
:10164000002405E0624801F042F8E4B23855641C19
:10165000E4B2EDB2AC4212D25E4880214901016091
:1016600004215B4801F036F80028EBD159480068A6
:10167000411E584A11600028F2D1012013E055485C
:101680008021490101602021514801F023F8002800
:1016900008D150480068411E4E4A11600028F2D11E
:1016A000012000E00020F2BDF8B505000E00140096
:1016B0001F004848802149010160802109024448F7
:1016C00001F008F8002808D042480068411E414A4D
:1016D00011600028F1D1012075E080208001009088
:1016E00080235B040122EDB2290089B2384800F062
:1016F000D1FF38488021490101600221344800F0BF
:10170000E9FF002808D133480068411E314A1160C2
:101710000028F2D1012056E03100C9B22C4800F077
:10172000D3FF2C488021490101608021284800F026
:10173000D1FF002808D127480068411E254A1160C2
:101740000028F2D101203EE00020009080239B047D
:101750002200D2B2EDB2290089B21D4800F09AFFF2
:10176000002505E0EDB2795D194800F0ADFF6D1C74
:10177000EDB2E4B2A54212D21648802149010160BF
:101780000221134800F0A6FF0028EBD111480068A1
:10179000411E104A11600028F2D1012013E00D48CB
:1017A0008021490101602021094800F093FF0028B1
:1017B00008D108480068411E064A11600028F2D18D
:1017C000012000E00020F2BD00040048442EE33078
:1017D00000540040F805002080B50420C04300F00C
:1017E000BDFF184800681849FFF7A1F917490870AC
:1017F000164800214056FA218900414314480180CF
:1018000001BD00B500B212490022895E484311496A
:10181000086011480021016010480068012101435F
:101820000E4801600D4800680D4901400129F9D0BA
:101830000A480068012188430849086006480021D9
:10184000016000BD9001002000127A001C060020FB
:101850001806002014E000E018E000E010E000E0CE
:1018600001000100F0B40E005E400125ED072E409E
:10187000B446AE0ADF184C18F4423BD2F74241D2CC
:10188000640D43D07F0D38D0E41BC902DB0229432D
:101890002B43CF0ADB0A0600B61A9F4104D2641E0E
:1018A000B6197F41B6185F416812800D24180018E0
:1018B000844222DAE80C0021B6197F41B61A9F4112
:1018C00002D2B6185F413F1C40414941F4D3241C69
:1018D00021DD2405B6197F41B61A9F4105D3374350
:1018E000C60737430026012F7041614166463143E8
:1018F000F0BC7047FCD1F74205D20020C143490536
:101900004908F3E704D00020C143F1E77F0DFAD086
:1019100000206146ECE72442FAD1401C61410F03EC
:10192000F6D30020E2E7FEE70122D2070118090EF4
:101930007F3910D449421F310FD4001805D2C0019D
:101940001043C84000D5D0437047C0011043C84081
:1019500005D440427047002070470042F3D5100084
:101960007047FEE77047FEE7F1B596B00C00150032
:101970001E0014AA044878440E3003C803C20A9417
:1019800009AC0020E06103E03C1F000000982D1826
:1019900068460021C18014AB0022D243290001A86F
:1019A000801C00F0F5FE0090012805DA2878411E21
:1019B0008941C943C90F00916846C0882528009F06
:1019C00000D17F1E012F11DB0295029801780A9841
:1019D000169A90470A90002800D1ECE1E069401C7B
:1019E000E0610298401C02907F1EEED16846C088DC
:1019F000252804D1002020616061A06108E06846CC
:101A0000C0880028C2D1E069D7E101000120084365
:101A10006D1C29782029F8D023290ED02B2904D039
:101A20002D2907D030290BD00DE0010002200843FA
:101A300080B2EDE701000420F9E701000820F6E795
:101A400001001020F3E72A290ED131680A1D326007
:101A500009686162002905D54A42626201000420DA
:101A6000084380B26D1C12E0002161620AE0626AE4
:101A7000304B9A4205D093009A18520051183039D1
:101A800061626D1C29780A00303A0A2AEFD329785E
:101A90002E2903D00021C94321621DE06D1C297845
:101AA0002A2906D131680A1D3260096821626D1C3D
:101AB00012E0002121620AE0226A1E4B9A4205D000
:101AC00093009A1852005118303921626D1C297800
:101AD0000A00303A0A2AEFD320852978B8A000F00E
:101AE00065FE002801D028786D1C2A216054605CB6
:101AF000682806D12878682803D12A206221215439
:101B00006D1C03A8E0602B78252B15D0582B41D0F5
:101B1000632B00D1B0E0642B73D0692B71D06F2B95
:101B200038D0702B2DD0732B0DD0752B32D0782B55
:101B300030D0C3E0FFFFFF7F2169481C206103A86C
:101B400025224254C7E02A20205C6C28306814D03B
:101B5000011D31600068A060226A002A02D500F0F1
:101B60002FFE08E0002100F033FE002802D0A1681B
:101B7000401A00E0206A6061ADE0011D316002683A
:101B800095E03068011D31600068099003A8A060ED
:101B900078216DE02A20225C6C2A01D130680FE0A8
:101BA000712A01D1306802E06A2A306808D1C01D6C
:101BB00007218843306001000831316003C802E02A
:101BC000011D316000680990682A01D180B202E0ED
:101BD000622A01D1C0B209902820205C000742D5BA
:101BE000099800283FD02020184378283BD121694C
:101BF00003A830224254491C481C206103A84354C6
:101C000031E02A20205C622803D0682807D06C28A5
:101C10000BE03068011D3160006840B209E03068B7
:101C2000011D3160006800B203E03068011D3160C1
:101C300000680990002805D52169481C206103A887
:101C40002D220FE0208D810705D52169481C2061D8
:101C500003A82B2206E0C00705D52169481C206196
:101C600003A820224254206903A90818A060190083
:101C700009A800F0E5F92EE02A20205C6C2809D0A4
:101C80002169481C20613068021D326003AA006887
:101C9000505420E03068011D3160694600680880BA
:101CA0006846002141800020C04320626A4609A99D
:101CB000169800F089F800280DD57CE02169481CB1
:101CC000206103A825224254002B04D02169481C1E
:101CD000206103A843546D1C606A2169401AA16900
:101CE000401A6169401A02902820205C400710D4F5
:101CF000684620210171002708E0012301AA09A9F3
:101D0000169800F01BFA002855D17F1C02988742D4
:101D1000F3DB276903A800900EE0009801780A9889
:101D2000169A90470A90002845D0E069401CE0616F
:101D30000098401C00907F1E002FEED16846302195
:101D40000171A069009008E0012301AA09A9169871
:101D500000F0F4F900282ED17F1C00988742F3DBB5
:101D60006769A06800900EE0009801780A98169ABA
:101D700090470A9000281ED0E069401CE06100985E
:101D8000401C00907F1E002FEED12820205C4007D1
:101D900000D4FDE568462021017100E07F1C029817
:101DA000874200DBF4E5012301AA09A9169800F097
:101DB000C5F90028F2D00020C04317B0F0BD0000E4
:101DC000686C747A4C000000F5B599B00C00206A7C
:101DD000002800D59748019000F006FD616A0818B8
:101DE000029006AA94A003C803C22820205C4007E2
:101DF00002D40298412806D208A8039040200290FD
:101E0000002004900DE000F0F5FC03900028F7D1CD
:101E10000020C0430BE11A98801C1A900198C01B47
:101E200001900198012800DA86E006AA1A98018834
:101E300000A8401C00F03AFD070000D590E01A9879
:101E40000088002802D17F1E00D589E00198B842A1
:101E500072DB20690299C21991425DD20021616250
:101E60004142A069081A6169401A05902820205C47
:101E7000400710D4684620210170002508E00123A6
:101E80006A462100199800F059F9002868D16D1CA4
:101E900005988542F3DB2369039A2100199800F025
:101EA0004DF900285CD1684630210170A6690025F3
:101EB00008E001236A462100199800F03FF9002844
:101EC0004ED16D1CB542F4DB6569A6680BE0317834
:101ED0006068199A90476060002841D0E069401C12
:101EE000E061761C6D1E002DF1D12820205C40079A
:101EF0000FD568462021017008E001236A462100C1
:101F0000199800F01BF900282AD16D1C059885420C
:101F1000F3DB0020049020613A0000A9491C2069ED
:101F2000039B181800F0CEFC2069C01920611A9894
:101F30000088002800D06EE70498002870D1606AFD
:101F40002169401AA169401A6169401A029028204B
:101F5000205C40071BD4684620210170002713E055
:101F60000020C04304905BE001256E463178606834
:101F7000199A904760600028F2D0E069401CE06147
:101F8000761C6D1EF2D17F1C02988742ECDB236920
:101F9000039A2100199800F0D1F80028E0D1684692
:101FA00030210170A069019000270FE001256E46E5
:101FB00031786068199A904760600028D0D0E06955
:101FC000401CE061761C6D1EF2D17F1C0198874297
:101FD000ECDB6369A2682100199800F0AFF80028D3
:101FE000BED12820205C400717D56846202101700B
:101FF00000270FE001256E4631786068199A9047F6
:1020000060600028ACD0E069401CE061761C6D1E69
:10201000F2D17F1C02988742ECDB002020616062D5
:10202000039808A9884201D000F07AFC04981BB0FC
:10203000F0BD0000FFFFFF7F000000000000000077
:102040007AB582B00400E06801906846007A6F2893
:1020500001D1082106E020220243782A01D00A217A
:1020600000E010210091182521680E00642801D09D
:10207000692803D1002901D530004642002E0ED137
:10208000206A00280BD10098082831D12820205C34
:1020900000072DD5172501983021C17528E06D1E48
:1020A00030000099FEF743FD3031C9B23A2903DB15
:1020B0006846007A51380918019841553000009956
:1020C000FEF735FD060004D0A06801994919884241
:1020D000E5D3009808280BD12820205C000707D5FD
:1020E0000198405D302803D06D1E01983021415584
:1020F0001820401B606101994919A160216A88423A
:1021000006DA081AA061208D0B490140218510E0F4
:1021100000290ED52821615C14220A40102A08D11A
:10212000616A2269891AA269891A0D1A012D00DBD8
:10213000A56104B070BD0000EFFF000079B50E008E
:1021400014001D00002005E0F069401CF061002033
:10215000641C6D1E002D08D021787068009A90478D
:1021600070600028F0D10020C04376BD1FB500F09C
:1021700093F8212101601FBD0CB40122120603183F
:10218000DA4207D84B18DA4204D802000A43921800
:1021900002D288420CBC7047FCD08142FAE7FEE7CD
:1021A000F8B505000C002C4900F0FEFB13D82B4EAF
:1021B0003100FEF752FF2A49FEF7BAFF0700280058
:1021C0003100FEF7B5FF01003800FFF774F8050095
:1021D00020000124044328002249FFF7CDFF03D348
:1021E000214900F0E1FB21D82900FEF736FF060067
:1021F00028003100FEF731FF1C49FEF72EFF2900B1
:10220000FEF796FF05001A483100FEF726FF194930
:10221000FEF78EFF3100FEF720FFFE218905FEF755
:1022200087FF01002800FFF746F80500A00702D548
:10223000802000064540600706D0C00E0EA1085859
:102240002900FEF775FF0500200702D58020000653
:1022500045402800F2BD0000A430893ED7B3DD3FE1
:10226000000080BF000080B9010080396AD5033FBB
:102270002B94A93DB82A593F00000000920A063F5E
:10228000DB0FC93F920A863FDB0FC93F920A064027
:10229000DB0F4940368D274080B5024800F098FB9F
:1022A00002BD0000940100200549096810229143F5
:1022B000034A1160024909680843014908607047F0
:1022C00030100240F0B5040000200025002200215B
:1022D0000023604E36680C2737403800002804D0B1
:1022E000042805D0082806D022E06D48206021E0AF
:1022F0006B4820601EE057480068F025AD0305409C
:1023000054480268802040020240AD0CAD1C002AF7
:1023100003D162484543256009E06248006801072F
:10232000090F491C5E48FEF702FC6843206001E08B
:102330005B48206047480168F020084000095A497E
:102340000B5C2068D840606042480168E020C00013
:102350000840000A54490B5C6068D840A0604E48B1
:102360000068C00502D45148E0600AE039480068BE
:10237000400403D4A0684008E06002E0A068800840
:10238000E06045480068400602D44948206102E008
:1023900080200002206140480068C00602D4404806
:1023A000606101E0206860613B4800688007800F41
:1023B000002802D1A068A0611AE0374800688007B1
:1023C000800F012802D12068A06111E03248006826
:1023D0008007800F022803D180200002A06107E05F
:1023E0002D4800688007800F032801D12C48A06188
:1023F000F0BD000000B5C9B2002905D02D4909681B
:1024000008432C49086004E02A49096881432948A7
:10241000016000BD00B5C9B2002905D02649096890
:1024200008432549086004E023490968814322489C
:10243000016000BD00B5C9B2002905D01F49096877
:1024400008431E49086004E01C49096881431B4891
:10245000016000BD0410024000B5C9B2002905D0DA
:102460001749096808431649086004E014490968D7
:1024700081431348016000BD00B5C9B2002905D0F1
:102480001049096808430F49086004E00D490968CC
:1024900081430C48016000BD3010024000093D003E
:1024A00000127A002C1002407C010020809FD50091
:1024B0001280000014100240181002401C1002404C
:1024C0000C1002401010024070B5002200230024BE
:1024D00000252A0046E0012393400C681C409C42E2
:1024E0003FD10B79012B02D00B79022B19D18368D4
:1024F0000324150002267543AC40A3438360836820
:102500004C79150002267543AC401C4384608388D7
:1025100001249440A343838083888C7994401C4396
:10252000848003680324150002267543AC40A3434E
:10253000036003680C79150002267543AC401C4308
:102540000460C3680324150002267543AC40A3430E
:10255000C360C368CC79150002267543AC401C43A8
:10256000C460521C102AB6D370BD00B50200002012
:10257000928A89B21140002901D0012000E0002098
:10258000C0B200BD89B28161704700B5D2B2002AE5
:1025900002D089B2816100E0018500BDF0B4140071
:1025A00000220023E4B20D006D076D0F0426754371
:1025B000AC40220089B20C00E41004256C430519DC
:1025C00089B20C00E410042674430419266A0F270C
:1025D000BC460C006407640F04277C436746A74091
:1025E000BE432E6289B20C00E41004256C4304192A
:1025F000246A2243130089B2C910042251434018AF
:102600000362F0BC7047FEE710B4002203680124A7
:10261000A343036003681A0013001C4A1A40140005
:102620004B688A6812021A43224302600A68184BF8
:102630001340036102680123134303600022826098
:10264000C2608B690A691A438260826880231B0218
:1026500013438360CA6803681A4302604268130028
:10266000174A1A4013004A691A43426010BC704767
:1026700000B5C9B2002904D0016801220A430260F2
:1026800003E0016801229143016000BDFFE0CF003B
:10269000FFFFFFF030B4002445682C002500094CF2
:1026A0002C40250089B28905890DD2B212040A4353
:1026B0001343029C1C432C43446030BC7047000011
:1026C000FF7FFF07009800FCC9B281627047406A33
:1026D000C0B2704700B502000023002092691300C9
:1026E00019400B00002B01D0012000E00020C0B2F7
:1026F00000BDFEE710B500218278002A26D00178BF
:102700008910042251431E4A5158FF2203789B0727
:102710009B0F082463439A4091430C004178890140
:10272000C9B202789207920F08235A43914021437D
:102730000278921004235A43114B995001210078DA
:10274000C006C00E81400F48016006E001210078FC
:10275000C006C00E81400C48016010BD00B50428C1
:1027600006D10A480068042101430848016005E0D9
:1027700006480068042188430449086000BD000041
:1027800000E400E000E100E080E100E010E000E0B3
:10279000F8B504000F0015001E0000F01BF933000F
:1027A0002A003900200000F029F9F2BDC9B200E08A
:1027B000401C02788A4202D0002AF9D100207047DA
:1027C000010000E0491C0A78002AFBD1081A704772
:1027D000C9B201E0401C521E002A03D003788B428C
:1027E000F8D170470020704780B500F0F3F8012061
:1027F00002BDFEE770B505002C000F3407208443AE
:10280000C046C046A54233D2082C04D2082402E0B8
:10281000083000F085F82448026811000CD1011D31
:102820000A68002A20D01368A34212D2111DF7E7CC
:102830001D68A5420DD2191D0B68002BF8D1126836
:10284000011D00E0191D0B6893420DD01D68A542C3
:10285000F8D300290CD00D682A681300083BA34266
:102860000AD26A680A600FE000F0E6F80028CFD1CB
:10287000C046C046002070BD2B190B606E685E60BC
:10288000121B0B681A602C600968002904D04A6882
:10289000002A01D0091D00E000210160C046C046A9
:1028A0000835280070BD0000F005002070B5040058
:1028B0000D00160000F08EF832002900200000F014
:1028C00093F870BD124207D08B0706D00B78491CD5
:1028D0000370401C521EF7D87047830706D00B7850
:1028E000491C0370401C521EF9D1704770B4103A55
:1028F00003D378C9103A78C0FBD2530701D318C963
:1029000018C001D508C908C0D20704D30B880380BA
:10291000891C801C002A01D50B78037070BC70479D
:10292000002800D1704710B5083804002068082836
:1029300036D3400734D1C046C0461A484168002902
:1029400001D08C4203D26160446019E019004B68E9
:10295000002B01D0A342F9D30A688B189C421DD3E7
:10296000A34204D12368D2180A600C0008E04A6828
:10297000002A03D02368E3189A420FD362604C60A8
:10298000616800290AD02268A3188B4206D100236F
:10299000036008681018206048686060C046C04640
:1029A00010BD0000F00500200CB40122120603182F
:1029B000DA4207D84B18DA4204D802000A439218C8
:1029C00002D281420CBC7047FCD088420CBC7047DC
:1029D0007047FEE780B50348FFF7FAFF806902BD44
:1029E00000000000D0000020002804D10EA003C881
:1029F00003C200207047017001207047002904D1F4
:102A00000BA003C803C300207047002A02D1012095
:102A1000C0437047002801D00A7802800978481E18
:102A20008041C043C00F704700000000000000005C
:102A3000000000000000000007490868002801D0DD
:102A400000207047054807229043086004499143DD
:102A5000091A0160704700BF14060020270A0020F1
:102A6000200C002080B54F4988420AD101218020E6
:102A7000C001FFF7F1FC00218020C001FFF7ECFC52
:102A80000CE04949884209D1012180208002FFF7EA
:102A9000F3FC002180208002FFF7EEFC01BDF2B5BF
:102AA00088B0070000200025002400263968012294
:102AB00091433960796808000100404808400100EE
:102AC0000898806808437860386801003C480840EE
:102AD000010008984068089AD26802430898006983
:102AE000104308433860B8680100364808400100C8
:102AF000089840690843B8606846FFF7E3FB294837
:102B0000874201D1069D00E0029D386800040AD585
:102B10001920454328000899096802225143FEF70D
:102B200006F8040009E019204543280008990968BF
:102B300004225143FDF7FBFF040020006421FDF750
:102B4000F6FF00010100090964225143661A396841
:102B500009040BD5040008204643323630006421B6
:102B6000FDF7E5FF4007400F20430AE00400102076
:102B70004643323630006421FDF7D9FF0007000FCD
:102B80002043B88109B0F0BD00B5C9B2002904D016
:102B9000016801220A43026003E0016801229143B7
:102BA000016000BD0038014000440040C905C90D66
:102BB00001857047808CC005C00D7047FFCFFFFFB7
:102BC000F3E9FFFFFFFCFFFF00B5D2B2002A03D0FC
:102BD00082681143816002E082688A43826000BD9E
:102BE00070B500230024002500260600080080B2EE
:102BF000000A80B20300C8B204000120A040050012
:102C0000022B01D1361D02E0032B00D10836D2B2CF
:102C1000002A03D030680543356002E03068A843DD
:102C2000306070BD00B502000020D269114000295B
:102C300001D0012000E00020C0B200BDF0B50200CC
:102C400000240025002600200B009BB21B0A9BB22B
:102C50001E00CBB21D0001272B003D009D40012E20
:102C600003D128001568054008E0022E03D1280092
:102C70005568054002E02800956805400C00240CCA
:102C8000012120000C0084402000D4690440002D64
:102C900003D0002C01D0012000E00020C0B2F0BD24
:102CA00010B58AB00400012180208002FFF7A2FB4A
:102CB000012180208002FFF7BDFB0122022190202C
:102CC000C005FFF76BFC012203219020C005FFF730
:102CD00065FC4648FFF7C6FE0C20019001A80221C2
:102CE000417101A80221017101A80021817101A88F
:102CF0000121C17101A99020C005FFF7E5FB0394F4
:102D000000200490002005900020069000200890EC
:102D10000C20079003A93548FFF7C1FE344A354916
:102D2000354800F073F8012280213048FFF74CFF4E
:102D300001212E48FFF728FF012230492B48FFF7D9
:102D40004FFF68461C2101706846022141706846A9
:102D5000012181706846FFF7CDFC2949632000F00E
:102D60001AF8284800210180002000F002F80AB07B
:102D700010BD80B5C0B2002808D00021224800F064
:102D8000ACF80121204800F0AAF803E000211E4819
:102D900000F0A5F801BD30B585B005000C0001219B
:102DA0000220FFF747FBADB20295601E694688809E
:102DB00001A80021018101A80021418001A9124838
:102DC00000F058F8012201210F4800F0A9F86846E8
:102DD000102101706846012141706846012181700F
:102DE0006846FFF787FC05B030BD00000044004096
:102DF0000000002028440040440002400501050076
:102E0000BF1200001A0600200004004070B58CB00C
:102E100004000D00160068460B2101706846012170
:102E200081706846002141706846FFF763FC01210C
:102E30000120FFF7DFFA200000F098F801950296D4
:102E400010200390C8200490002005908020069058
:102E50000020079000200890202009908020400149
:102E60000A9000200B9001A9200000F0C1F80CB0DE
:102E700070BDFEE700B5002203881A001F4B984280
:102E800006D08023DB05984202D01D4B984205D125
:102E900013001F4A1A4013004A881A43194B9842DC
:102EA00005D013001B4A1A4013000A891A430280F6
:102EB0004A68C2620A880285104A904208D0124AC3
:102EC000904205D0114A904202D0134A904201D15B
:102ED000897A01860121818200BD4162704700B577
:102EE000C9B2002904D0018801220A43028003E00C
:102EF00001880A4A0A40028000BD0000002C0140FF
:102F00000004004000100040004001400044014027
:102F10008FFF0000FFFC000000480140FEFF0000A2
:102F200000B5D2B2002A03D082891143818102E028
:102F300082898A43828100BD30B5020000200023CF
:102F40000024158A0D402B00928911400C009BB281
:102F5000002B04D0A4B2002C01D0012000E00020FE
:102F6000C0B230BD89B2CA430282704700B5016861
:102F7000304A0A40026000210160002141600021C6
:102F800081600021C1602C49884206D12B4800682D
:102F90000F2101432948016029E02949884206D1CF
:102FA00026480068F0210143244801601FE02549BC
:102FB000884207D121480068F021090101431F48D8
:102FC000016014E02049884207D11C480068F021C4
:102FD000090201431948016009E01C49884206D1F1
:102FE00016480068F021090301431448016000BD40
:102FF00030B40023026813001A00154B13401A0066
:103000008B680C6A1C430B6923434C691C438B6916
:103010002343CC691C434D6A25438B6A2B431343DE
:103020000360CA6842600A6882604968C16030BC57
:1030300070470000FEFF000008000240040002404C
:103040001C00024030000240440002405800024090
:103050000F80FFFF704700B5FEE77047704770476D
:1030600080B5402000F0AEF8002807D000F0E3F86B
:103070004C4801214171402000F0B8F801BD80B5F5
:1030800001218020C005FFF757FF002845D001210E
:103090008020C005FFF766FF43480088401C424976
:1030A000088041484088401C3F4948803E4880880D
:1030B000401C3D4988803C48C088401C3A49C88033
:1030C00039480089401C3849088137480088012860
:1030D00002D135480021018033484088022802D1BE
:1030E00031480021418030488088052802D12E488F
:1030F000002181802C48C0880A2802D12A4800215A
:10310000C18029480089FA218900884205D12648D2
:10311000002101812548FDF775FF01BD80B5012122
:103120002348FFF709FF00280DD02248008880219E
:10313000090201431F48018001211D48FFF712FFCA
:103140000020FFF716FE01BD10B51B491B48FFF715
:1031500075FD002825D01948FFF72CFD04001548FF
:103160000088C8218900884214DA00211048FFF73E
:10317000B4FE10480088002802D10120FFF7F9FDB5
:103180000C4800880E490C540A480088401C094924
:10319000088006E0074800888021090201430548AD
:1031A000018010BDA4050020BC050020AC3800083B
:1031B000000400401A0600200501050000440040FC
:1031C0009801002000B5010000200022094B1B6877
:1031D0000B401A00084B1B681940002903D0002A35
:1031E00001D0012000E00020C0B200BD024908600B
:1031F00070470000000401401404014000B583B092
:10320000012180208002FFF7F5F80C20009068462D
:1032100001210171684600218171684603214171D5
:1032200069469020C005FFF74FF90C219020C0059A
:10323000FFF7A8F907BD80B50C219020C005FFF766
:1032400094F901210A1AD2B20C219020C005FFF78F
:103250009CF901BD80B5384800680121014336481A
:103260000160364800683649014034480160324800
:10327000006834490140304801602F4800683249F5
:1032800001402D4801602D480068304901402B481D
:1032900001602F4800680F2188432D4908602D48A0
:1032A00000682D4901402B4801602C48006801212D
:1032B00088432A4908602A480021016000F001F88B
:1032C00001BD80B50020009000200090254811210C
:1032D00001601A48194909680160184817490968C6
:1032E00001601648006819490140144801601348FC
:1032F0000068A02189030143104801600E4800685E
:103300008021490401430C4801600B48006880019A
:10331000FBD50A480068032188430849086007482C
:1033200000680221014305480160044800680C213F
:1033300001400829F9D101BD0010024004100240EB
:103340000CB8FFF8FFFFF6FEFFFFFBFFFFFFC0FF1B
:103350002C10024030100240ACFEFFFF341002403F
:10336000081002400020024010B588B0040001217E
:1033700080208002FFF73EF801218020C001FFF786
:1033800049F8012209219020C005FFF707F9012221
:103390000A219020C005FFF701F9C020C00000906D
:1033A0006846022101716846002181716846012149
:1033B000C17168460321417169469020C005FFF73D
:1033C00083F80294002003900020049000200590D0
:1033D000002007900C20069002A91148FFF75FFB20
:1033E00001210F48FFF7D0FB08B010BD00B50D4913
:1033F00009680906FBD50C49C0B2088000BD10B5AC
:1034000004002100C9B289B20548FFF7CFFB802133
:103410000348FFF707FC0028F9D0200010BD00008A
:10342000003801401C3801402838014010B5040024
:1034300003E02078FFF7DAFF641C20780028F8D139
:1034400010BD0EB400B5C0B041AA0100684600F03E
:1034500007F86846FFF7EAFF409844B00047FEE7E8
:1034600016B50400009401AB0A006946064878448A
:103470001630FEF779FA009900220A70002801D46C
:103480000098001B16BD00BF73DBFFFF816807E0DB
:103490000268116851185368CB18C3600832026083
:1034A000C2689142F4D04A1C826008787047F0B537
:1034B00087B001000831029101684908C900029AE9
:1034C0005118039100250495059501684908C90024
:1034D0004418083440686946C307DB0F4B70400846
:1034E000C00020180190002735E002A8FFF7CEFFAA
:1034F00046B20AE0029801684018049002994968AF
:103500004018059002980830029004980599884266
:10351000F0D0411C0491694600780870BD4210D17A
:103520000198844201D100F01EF825686846407871
:10353000002801D048462D1860682F180834BD4275
:10354000EED06846007828706D1C002E08D5761CD9
:10355000E4D1BD42C9D101988442C6D107B0F0BDC3
:10356000761ED2D5F5E780B5012000F001F801BD47
:1035700080B5C046C046024A11001820ABBEFBE72A
:103580002600020080B5024800F004F801BD0000EA
:10359000BC0500200021C180818041800180018123
:1035A000704730B585B005000C0001210120FEF701
:1035B00041FFADB20295601E6946888001A80021D6
:1035C000018101A80021418001A98020C005FFF7E9
:1035D00051FC012201218020C005FFF7A1FC6846B3
:1035E0000F210170684600214170684601218170F9
:1035F0006846FFF77FF801218020C005FFF76FFCC8
:1036000005B030BD80B500F01BF83021FA208000F5
:10361000FFF7C7FFFDF76EF9074800F01FF80748EE
:10362000FFF70FFFFCF74CFDFCF7FBFDFA20400015
:10363000FEF7E7F8F6E700BF80050020DC3600085B
:1036400080B5FEF7C9F8FFF7D9FDE1204002FFF78A
:103650008BFE96208001FFF723FB01BD80B56846F5
:10366000142101706B46012200213C20FEF71CF85A
:103670006846002101706B46012202213C20FEF7C2
:1036800013F801BD10B5074979441831064C7C4444
:10369000163404E0081D0A68891888470100A14211
:1036A000F8D110BD080000003400000063D5FFFF12
:1036B000880400009801002000000000F3FDFFFFD7
:1036C0000200000002000000240200004A00000086
:1036D000000000209801000025000000D4C6CCA8FE
:1036E000B6A8CEBBCFB5CDB3A3ACB2E2CAD4B3CCEF
:1036F000D0F2B5F7CAD40D0A0000000010B50400DE
:10370000044979440E31044878440C3000F006F83E
:10371000200010BDC0010000B401000038B5050054
:103720000C00A54205D02868401980472D1DA542F0
:10373000F9D131BD80B5054800F001F801BD002187
:1037400041710171C9B2418001807047A405002018
:1037500000F00BF8002801D0FFF794FF0020C046CE
:10376000C046FFF74FFF00F002F80120704780B518
:1037700000F002F801BDFEE707463846FFF7F8FE05
:10378000FBE738B505000C00200000F005F8A0426A
:1037900000D00025280032BD80B50249FFF72FFE7A
:1037A00002BD00BF3C01002058D6E1CDD3C2DDD21E
:1037B000C725640D0A00000059D6E1CDD3C2DDD281
:1037C000C725640D0A0000005AD6E1CDD3C2DDD270
:1037D000C725640D0A00000058D6E1BCD3CBD9B68A
:1037E000C8253130640D0A0059D6E1BCD3CBD9B617
:1037F000C8253130640D0A005AD6E1BCD3CBD9B606
:10380000C8253130640D0A0070697463683A252E4A
:1038100032660D0A0000000058D6E1BCD3CBD9B601
:10382000C8253130640D0A0059D6E1BCD3CBD9B6D6
:10383000C8253130640D0A005AD6E1BCD3CBD9B6C5
:10384000C8253130640D0A0058D6E1CDD3C2DDD28F
:10385000C7253130640D0A0059D6E1CDD3C2DDD27F
:10386000C7253130640D0A005AD6E1CDD3C2DDD26E
:10387000C7253130640D0A000148804701480047E0
:1038800055320008B93800085941573A252E32669A
:103890000D0A0000726F6C6C3A252E32660D0A001C
:1038A000CEC2B6C83A25640D0A0000003173CAB111
:1038B000BCE4B5BD0D0A0000C046C046C046C046C7
:1038C000FFF746FF000000000000000069FEFFFF58
:1038D000B5FCFFFFFEE7FEE7FEE7FEE7FEE7FEE7DB
:1038E000FEE7FEE7FEE7FEE7FEE7FEE7086665693E
:1038F00079757465636881008100CB001F02040143
:1039000001B804002008050020B8040020B8040015
:1039100020B80400207901002060010020DC0013A1
:103920000102030401020304060708090000803FA6
:08393000006CDC02FC00000049
:04000005080038B9FE
:00000001FF
